:020000040800F2
:100000000020002031010008EB000008EB00000890
:10001000EB000008EB000008EB0000080000000007
:10002000000000000000000000000000EB000008DD
:10003000EB00000800000000EB000008EB000008E7
:1000400080B51B48006850F0010019490860194844
:10005000006850F002001749086000F019F81648CF
:10006000006850F48060144908601448006850F03B
:10007000200012490860002000E0401C104988421E
:10008000FBDB0E48006830F020000C490860FEE7FA
:1000900045F255500B49086004200B4908604FF4A5
:1000A0007A700A4908604CF6CC40064908607047EF
:1000B000003802403038024000040240140402407C
:1000C00040420F0000300040043000400830004043
:1000D0004EF68851CEF20001086840F470000860C6
:1000E0004FF00070E1EE100A7047FEE700F00BF8E9
:1000F000002801D0C046C0460020C046C046FFF7D9
:100100009FFF00F002F80120704700F001B80000E6
:100110000746384600F002F8FBE7000080B5C0460D
:10012000C046024A11001820ABBEFBE726000200C1
:0C013000C046C046FFF7CCFFFFF7D8FF29
:0400000508000131BD
:00000001FF
